:100000000C943A010C9459010C9459010C94590127
:100010000C9459010C942A050C942A050C947F0524
:100020000C9459010C9459010C9459010C945901E8
:100030000C9459010C9459010C9459010C945901D8
:100040000C9459010C945B080C9459010C945901BF
:100050000C9459010C9459010C9459010C945901B8
:100060000C9459010C9459010C9459010C945901A8
:100070000C9459010C9459010C9459010C94590198
:100080000C9459010C9459010C9459010C94590188
:100090000C9459010C945901000000000000005F0D
:1000A00000000003000300143E143E14242A7F2A9B
:1000B000124333086661364955225000050300009B
:1000C000001C2241000041221C0014083E081408B4
:1000D000083E0808005030000008080808080060C2
:1000E00060000020100804023E5149453E00040211
:1000F0007F00426151494622414949361814127F16
:100100001027454545393E494949320101710907E2
:100110003649494936264949493E003636000000ED
:10012000563600000814224100141414141400411F
:1001300022140802015109063E4159555E7E090903
:10014000097E7F494949363E414141227F41414133
:100150003E7F494949417F090909013E4141493AE8
:100160007F0808087F00417F4100304040403F7FCA
:10017000081422417F404040407F020C027F7F02F2
:1001800004087F3E4141413E7F090909061E2121A5
:10019000215E7F09090976264949493201017F011B
:1001A000013F4040403F1F2040201F7F2010207F04
:1001B00041221C224107087008076151494543004C
:1001C0007F41000002040810200000417F0004026B
:1001D0000102044040404040000102040020545409
:1001E00054787F4444443838444444443844444474
:1001F0007F385454541804047E0505085454543C64
:100200007F0804047800447D40002040443D007F86
:100210001028440000417F40007C047804787C086A
:1002200004047838444444387C1414140808141422
:10023000147C007C080404485454542004043F44B3
:10024000443C4040207C1C2040201C3C4030403C32
:1002500044281028440C5050503C4464544C4400F2
:100260000836414100007F0000414136080002018C
:100270000204020011241FBECFEFD0E2DEBFCDBFCB
:1002800012E0A0E0B1E0E8EEF7E200E00BBF02C050
:1002900007900D92A837B107D9F712E0A8E7B2E0AE
:1002A00001C01D92A73BB107E1F70E943F060C94E5
:1002B000F2130C94000093E89093B00091E09093B7
:1002C000B1008093B30008959C0190937F028093C6
:1002D0007E0286E390E0809300402115310589F489
:1002E00080EF90E090937B0280937A0280E491E02B
:1002F00090937D0280937C0288E490E0809300419B
:100300003BC02130310589F480E491E090937B0279
:1003100080937A0280EF90E090937D0280937C023C
:1003200088EE90E08093004127C02230310589F4A7
:1003300080EF90E090937B0280937A0280E491E0DA
:1003400090937D0280937C0288E890E08093004146
:1003500013C02330310581F480E491E090937B0257
:1003600080937A0280EF90E090937D0280937C02EC
:1003700088E290E0809300418AE290E08093004020
:1003800020E030E0309300412093004180917A02D8
:1003900090917B02019790930041809300418BE202
:1003A00090E0809300403093004120930041809181
:1003B0007C0290917D0201979093004180930041CF
:1003C00008951F93682F873718F010E066E711C073
:1003D000883010F468E00CC08D3310F010E009C0D4
:1003E0008F3110F011E005C0803110F012E001C033
:1003F00013E081EB90E0809300401093004170E0A7
:10040000882777FD8095982F0E949D0D9B01AC0158
:1004100060E070E080EF94E40E94610C0E9491091A
:1004200070E002C0759567951A95E2F760930041F8
:100430001F9108950F931F93DF93CF93CDB7DEB72E
:1004400028970FB6F894DEBF0FBECDBF29833A833D
:100450004B835C836D837E838F83988769817A81E8
:100460002B813C81ED81FE814F8158858AE290E0AD
:1004700080930040709300416093004130930041AD
:10048000209300418BE290E080930040F093004184
:10049000E093004150930041409300418CE290E092
:1004A000809300402F5F3F4F261B370B4F5F5F4FFE
:1004B0004E1B5F0B24173507C8F4842F877090E01C
:1004C000829FB001839F700D929F700D1124F3E005
:1004D00056954795FA95E1F7842F90E0829FF001B9
:1004E000839FF00D929FF00D112418C0822F87700A
:1004F00090E0849FB001859F700D949F700D112432
:10050000E3E036952795EA95E1F7822F90E0849F06
:10051000F001859FF00D949FF00D1124862F8770B8
:1005200005C0109300410093004181508823C9F712
:10053000CB0123E0969587952A95E1F78E0F9F1FB3
:1005400021C010930041009300411093004100939B
:10055000004110930041009300411093004100932B
:10056000004110930041009300411093004100931B
:10057000004110930041009300411093004100930B
:10058000004101970097E9F628960FB6F894DEBF70
:100590000FBECDBFCF91DF911F910F910895EF92C4
:1005A000FF920F931F93DF93CF93CDB7DEB72897BA
:1005B0000FB6F894DEBF0FBECDBF29833A834B83BD
:1005C0005C836D837E838F83988729813A81AB8199
:1005D000BC81ED80FE806F8178858AE290E0809317
:1005E00000403093004120930041B0930041A0931C
:1005F00000418BE290E080930040F0920041E09255
:10060000004170930041609300418CE290E0809340
:1006100000400FC0F801819191918F0190930041AA
:10062000809300414F5F5F4F6417750798F72F5F06
:100630003F4FA217B30710F0A701F6CF28960FB6C9
:10064000F894DEBF0FBECDBFCF91DF911F910F9108
:10065000FF90EF9008950F931F93DF93CF93CDB743
:10066000DEB728970FB6F894DEBF0FBECDBF10924D
:1006700081021092800210928302109282022091D5
:100680007A0230917B022150304080917C0290911F
:100690007D0201971A821982422F3C832B831E828E
:1006A0001D8298878F83009186021091870229818D
:1006B0003A815C816D817E8198850E941A0228961C
:1006C0000FB6F894DEBF0FBECDBFCF91DF911F9163
:1006D0000F91089586E08093750080E88093740000
:1006E0003F9A249A80ED97E00197F1F7479880E4CC
:1006F0009CE90197F1F7479A80EB94E028EC30E011
:10070000F9013197F1F70197D9F788E290E08093EA
:10071000004081E190E08093004088E592E028EC81
:1007200030E0F9013197F1F70197D9F741E050E056
:100730008BEC90E0809300404093004180EC90E08F
:100740008093004088E096E29093004180930041BE
:1007500020E130E081EC90E0809300402093004164
:1007600085EC90E0809300408EE395E39093004108
:100770008093004125EB30E087EC90E080930040CF
:100780002093004186EF90E0809300404093004129
:1007900080E090E0909300418093004125E530E0B7
:1007A0008AE390E0809300402093004180E090E055
:1007B0000E9464010E942B03109281021092800219
:1007C0001092830210928202109287021092860287
:1007D0008FEF9FEF909385028093840289E290E0EF
:1007E0008093004084EF91E028EC30E0F9013197EC
:1007F000F1F70197D9F780E090E025E330E020930E
:1008000000408093004180916A00806280936A007A
:100810002C9A0895CF92DF92EF92FF920F931F933D
:10082000CF93DF93982F209180023091810289012C
:100830000C5F1F4FA0918202B091830280528F35CE
:1008400008F083C0ED01279685E09802F00111249D
:10085000E850F0408BE290E080930040B09300417C
:10086000A0930041D0930041C09300419AE2C92E69
:10087000D12C8CE2E82EF12C29C0C092004030939C
:100880000041209300413093004120930041E092C9
:1008900000407491AD0161E013C0862F872329F0D9
:1008A000809184029091850204C08091860290918B
:1008B000870290930041809300414F5F5F4F660F26
:1008C000C417D50750F731962F5F3F4F0217130714
:1008D000A0F68AE290E0809300403093004120939C
:1008E000004130930041209300418CE290E08093DE
:1008F00000409D010AC080918602909187029093EA
:100900000041809300412F5F3F4FC217D30798F7F4
:10091000809180029091810206969093810280934B
:10092000800220917A0230917B028217930768F04F
:100930001092810210928002809182029091830233
:1009400008969093830280938202DF91CF911F914A
:100950000F91FF90EF90DF90CF9008951F93CF936A
:10096000DF93EC0110E003C00E940A041F5FFE0148
:10097000E10FF11D80818823B9F7DF91CF911F919D
:1009800008951F93CF93DF93EC01709381026093DE
:100990008002509383024093820210E003C00E94C1
:1009A0000A041F5FFE01E10FF11D80818823B9F762
:1009B000DF91CF911F910895279A2F9808952F9A2C
:1009C000089514BC15BC2F98089593E894BD91E048
:1009D00095BD87BD08958DB18F748DB98EB1806B33
:1009E0008EB987B1837C87B988B18C6388B9EAE610
:1009F000F0E080818568808308959CB1907329F42C
:100A0000809179028032A9F406C09033D9F48091A4
:100A10007902803139F48091780281508093780294
:100A2000903329F480917902803261F406C09923D1
:100A300049F480917902803129F4809178028F5FA6
:100A4000809378029093790280917802089586B11C
:100A50008C7308951F920F920FB60F920BB60F92E0
:100A600011242F933F934F935F936F937F938F93B3
:100A70009F93AF93BF93EF93FF930E94FD0488EC85
:100A800090E00197F1F7FF91EF91BF91AF919F91A6
:100A90008F917F916F915F914F913F912F910F9027
:100AA0000BBE0F900FBE0F901F90189520916F01F5
:100AB00080EF90E0821B910962E070E00E94BD101F
:100AC000709393026093920280916F0190E0805145
:100AD0009F4F95958795909395028093940280916E
:100AE0006F012FE331E0A901481B51095093970290
:100AF00040939602309399022093980208951F9292
:100B00000F920FB60F920BB60F9211240F931F93F3
:100B10002F933F934F935F936F937F938F939F9305
:100B2000AF93BF93EF93FF93DF93CF9300D00F92D8
:100B3000CDB7DEB780919002882309F486C08091FA
:100B40009102882309F445C01092910220918802F5
:100B50003091890240918A0250918B0260918C02FF
:100B600070918D0280918E0290918F0200EE17E0BD
:100B70000E941A029091A2028091B602891778F120
:100B80002091A20200D000D000D0EDB7FEB7319680
:100B90008E010F5F1F4FADB7BEB712961C930E9319
:100BA000119780E091E093838283248315820E94D1
:100BB0001B118DB79EB706960FB6F8949EBF0FBE59
:100BC0008DBFC80162E370E04AE050E00E94C104BA
:100BD0001FC09091A2028091B602891718F410925A
:100BE000900233C000918602109187022091880202
:100BF0003091890240918A0250918B0260918C025F
:100C000070918D0280918E0290918F020E941A0243
:100C1000A8E8B2E0EAE9F2E088E001900D928150A4
:100C2000E1F720919A0230919B0240919C025091F1
:100C30009D0260919E0270919F028091A00290910E
:100C4000A10200E018EF0E941A020F900F900F907F
:100C5000CF91DF91FF91EF91BF91AF919F918F91D4
:100C60007F916F915F914F913F912F911F910F91C4
:100C70000F900BBE0F900FBE0F901F901895AF9264
:100C8000BF92CF92DF92EF92FF920F931F93DF9369
:100C9000CF9300D00F92CDB7DEB780E8809361008C
:100CA000109261000E94EB040E94DC040E946A031F
:100CB0008DE30E94E101EE9A1092800088E080931B
:100CC00081008091810081608093810080916F001C
:100CD000826080936F0082E19AE7909399008093FD
:100CE00098007E010894E11CF11C40E0C42E41E014
:100CF000D42E38ECA32EB12C8FEF9FEF9093890068
:100D0000809388000E942B032E9A83E091E06BE48D
:100D100070E04CE350E00E94C10482E191E066E49F
:100D200070E044E650E00E94C10484E291E068E291
:100D300070E048E750E00E94C10480E491E065E57E
:100D400070E04AEA50E00E94C10480916F0100D037
:100D500000D000D0EDB7FEB73196ADB7BEB7129652
:100D6000FC92EE921197D382C282848315820E94F4
:100D70001B118DB79EB706960FB6F8949EBF0FBE97
:100D80008DBFC7016EE670E04BE950E00E94C104E0
:100D90000E94560520919202309193024091940254
:100DA00050919502609196027091970280919802FD
:100DB0009091990200E018EF0E941A02E2C0329965
:100DC0006FC00091860210918702209192023091AB
:100DD0009302409194025091950260919602709115
:100DE000970280919802909199020E941A02809134
:100DF0006F018B3068F080916F018A5080936F0192
:100E00008BE491E066E470E04BE950E00E94C1049D
:100E10000E94560580916F0100D000D000D0EDB740
:100E2000FEB73196ADB7BEB71296FC92EE9211970F
:100E3000D382C282848315820E941B118DB79EB714
:100E400006960FB6F8949EBF0FBE8DBFC7016EE623
:100E500070E04BE950E00E94C10420919202309171
:100E60009302409194025091950260919602709184
:100E70009702809198029091990200E018EF0E94E9
:100E80001A0280ED97E0F5013197F1F70197D9F754
:100E90008DE491E066E470E04BE950E00E94C1040B
:100EA00034996FC0009186021091870220919202BE
:100EB0003091930240919402509195026091960274
:100EC0007091970280919802909199020E941A0263
:100ED00080916F01863468F480916F01865F809302
:100EE0006F018FE491E06BE970E04BE950E00E9404
:100EF000C1040E94560580916F0100D000D000D03F
:100F0000EDB7FEB73196ADB7BEB71296FC92EE9232
:100F10001197D382C282848315820E941B118DB7E0
:100F20009EB706960FB6F8949EBF0FBE8DBFC70141
:100F30006EE670E04BE950E00E94C10420919202FD
:100F400030919302409194025091950260919602E3
:100F500070919702809198029091990200E018EFA9
:100F60000E941A0280ED97E0F5013197F1F70197A1
:100F7000D9F78DE491E06BE970E04BE950E00E9415
:100F8000C10433991CCF0E94560560916F018FE315
:100F900091E070E00E94BD106093B60280916F01F5
:100FA0008093B302ABEAB2E0E3EAF2E088E00190BA
:100FB0000D928150E1F7AAE9B2E0E2E9F2E088E0BF
:100FC00001900D928150E1F7A8E8B2E0EAE9F2E081
:100FD00088E001900D928150E1F791E090939102A9
:100FE00082E0809390029093A20280E991E0909336
:100FF000B5028093B4020E942B0381E591E06AE080
:1010000070E04AE050E00E94C10488E591E062E3AC
:1010100070E04AE050E00E94C1048AE591E06CE390
:1010200070E04AE050E00E94C1048091B60200D016
:1010300000D000D0EDB7FEB73196ADB7BEB712966F
:10104000FC92EE921197D382C282848315820E9411
:101050001B118DB79EB706960FB6F8949EBF0FBEB4
:101060008DBFC70166E470E04AE050E00E94C10411
:101070007894809190028823E1F7F8940E94E1042B
:101080009091A2028091B602891718F48CE591E044
:1010900002C085E691E06FE570E04EE650E00E9408
:1010A000C10488EA91E6F5013197F1F70197D9F784
:1010B0000E942B0321CE1F920F920FB60F920BB6F8
:1010C0000F921124AF92BF92CF92DF92EF92FF92D4
:1010D0000F931F932F933F934F935F936F937F9340
:1010E0008F939F93AF93BF93EF93FF936091B4025D
:1010F0007091B50280E090E00E944F0E5B016C01A0
:1011000020E030E04AEF54E40E94670B7B018C0141
:1011100020E030E040E85FE30E946D0D88231CF47E
:1011200061E070E024C0C801B70120E03FEF4FE765
:1011300057E40E940D0D1816B4F4C601B50120E065
:1011400030E040E251E40E94670B0E94910988EC74
:1011500090E005C0FC013197F1F7615070406115D6
:101160007105C1F707C0C801B7010E949109CB0101
:101170000197F1F780919002882309F4B7C067992D
:1011800079C02091AB023091AC0280919A0290918B
:101190009B022817390789F42091AD023091AE02E5
:1011A00080919C0290919D022817390731F490910B
:1011B000A2028091B6028917B8F480919002815002
:1011C0008093900280919002882371F40E94DF0442
:1011D00084ED90E328EC30E0F9013197F1F70197C5
:1011E000D9F70E94E10482C08091A2028F5F8093B0
:1011F000A2028091B4029091B5028536910548F023
:101200008091B4029091B5024E979093B50280936D
:10121000B402ABEAB2E0EAE9F2E088E001900D92B4
:101220008150E1F780919E0290919F0220916F0181
:10123000821B910990939F0280939E028091A0024D
:101240009091A10220916F01821B91099093A102BC
:101250008093A0020E94DF0484ED90E328EC30E04C
:10126000F9013197F1F70197D9F70E94E10481E084
:101270008093910220919A0230919B028091B30257
:10128000992787FD9095820F931F90939B028093DF
:101290009A0220919C0230919D028091B30299277D
:1012A00087FD9095820F931F90939D0280939C02DF
:1012B00020919C0230919D0240916F0180917A02B1
:1012C00090917B02841B91092817390750F42091D3
:1012D0009A0230919B0280916F0190E082179307F0
:1012E00028F08091B30281958093B302FF91EF9132
:1012F000BF91AF919F918F917F916F915F914F912E
:101300003F912F911F910F91FF90EF90DF90CF9021
:10131000BF90AF900F900BBE0F900FBE0F901F901D
:101320001895EF92FF920F931F937B018C0120E0A1
:1013300030E040E05FE40E943D0D88238CF0C8015E
:10134000B70120E030E040E05FE40E94090B0E941A
:10135000FB0D9B01AC01205030404040504806C07E
:10136000C801B7010E94FB0D9B01AC01B901CA0184
:101370001F910F91FF90EF900895A0E0B0E0E3EC93
:10138000F9E00C94E410DC012B01FA019C919230FD
:1013900008F439C1EB018881823008F433C19430FC
:1013A00069F4843009F02FC111969C9111978981BD
:1013B000981709F428C1A0E7B1E025C1843009F4E9
:1013C00021C18230A9F4923009F01DC19A01AD010A
:1013D00088E0EA010990AE01E90109929E0181507D
:1013E000C1F7E201898111969C918923818308C10B
:1013F000923009F407C112962D903C901397EB019F
:101400008A819B811496AD90BD90CD90DC9017970A
:10141000EC80FD800E811F819101281B390BB901E1
:1014200037FF04C066277727621B730B6032710594
:101430000CF061C0121613066CF537014801062E38
:1014400004C096948794779467940A94D2F721E025
:1014500030E040E050E004C0220F331F441F551F0E
:101460006A95D2F721503040404050402E213F2114
:1014700040235123211531054105510521F021E07B
:1014800030E040E050E079018A01E628F728082999
:1014900019293CC0232BD1F1260E371E35014601F8
:1014A000062E04C096948794779467940A94D2F792
:1014B00021E030E040E050E004C0220F331F441F21
:1014C000551F6A95D2F721503040404050402A21A4
:1014D0003B214C215D21211531054105510521F0AC
:1014E00021E030E040E050E059016A01A628B72829
:1014F000C828D9280BC0821593052CF01C01AA24FA
:10150000BB24650103C0EE24FF24870111969C9142
:10151000D20111968C91981709F445C0992339F09E
:10152000A80197012A193B094C095D0906C0A601CB
:1015300095012E193F09400B510B57FD08C0118230
:101540003382228224833583468357831DC081E002
:1015500081833382228288279927DC01821B930BA7
:10156000A40BB50B84839583A683B7830DC0220F8C
:10157000331F441F551F248335834683578382813D
:10158000938101979383828324813581468157819A
:10159000DA01C9010197A109B1098F5F9F4FAF4FD0
:1015A000BF4328F30BC0918333822282EA0CFB1CD9
:1015B0000C1D1D1DE482F5820683178383E0808362
:1015C000248135814681578157FF1AC0C901AA2756
:1015D00097FDA095BA2F81709070A070B07056954D
:1015E000479537952795822B932BA42BB52B848376
:1015F0009583A683B78382819381019693838283A7
:10160000DF0101C0D201CD01CDB7DEB7E2E10C941C
:101610000011A0E2B0E0EFE0FBE00C94F010698371
:101620007A838B839C832D833E834F835887E9E0A5
:10163000EE2EF12CEC0EFD1ECE010196B7010E949C
:10164000EC0F8E010F5E1F4FCE010596B8010E9470
:10165000EC0F8A8991E089278A8BC701B801AE0116
:10166000475E5F4F0E94BD090E94170FA096E6E0FB
:101670000C940C11A0E2B0E0E0E4FBE00C94F0105C
:1016800069837A838B839C832D833E834F83588722
:10169000F9E0EF2EF12CEC0EFD1ECE010196B70104
:1016A0000E94EC0F8E010F5E1F4FCE010596B80110
:1016B0000E94EC0FC701B801AE01475E5F4F0E9468
:1016C000BD090E94170FA096E6E00C940C11A0E251
:1016D000B0E0EDE6FBE00C94E41069837A838B8341
:1016E0009C832D833E834F835887CE010196BE0194
:1016F000675F7F4F0E94EC0FCE010596BE016F5EC3
:101700007F4F0E94EC0F9985923088F08989823052
:10171000C8F0943019F4823051F404C0843029F4B4
:10172000923081F480E791E0C6C0923049F420E025
:101730009A858A89981321E02A87CE010996BBC031
:10174000823049F420E09A858A89981321E02A8B17
:10175000CE014196B0C02D843E844F8458886D8858
:101760007E888F88988CEE24FF248701AA24BB24CE
:10177000650140E050E060E070E0E0E0F0E0C101D1
:1017800081709070892BE9F0E60CF71C081D191D7B
:101790009A01AB012A0D3B1D4C1D5D1D80E090E0C0
:1017A000A0E0B0E0E614F7040805190520F481E094
:1017B00090E0A0E0B0E0BA01A901480F591F6A1FEC
:1017C0007B1FAA0CBB1CCC1CDD1C97FE08C081E053
:1017D00090E0A0E0B0E0A82AB92ACA2ADB2A319614
:1017E000E032F10549F0660C771C881C991C569470
:1017F000479437942794C3CFFA85EA892B893C898B
:101800008B859C85280F391F2E5F3F4F17C0CA015B
:1018100081709070892B61F016950795F794E79485
:1018200080E090E0A0E0B0E8E82AF92A0A2B1B2B20
:1018300076956795579547952F5F3F4F77FDE7CF93
:101840000CC0440F551F661F771F17FD4160EE0C3B
:10185000FF1C001F111F21503040403090E05907FD
:1018600090E0690790E4790760F32B8F3C8FDB01F0
:10187000CA018F779070A070B07080349105A10577
:10188000B10561F447FD0AC0E114F1040105110539
:1018900029F0405C5F4F6F4F7F4F40781A8EFE17E4
:1018A00011F081E08A8F4D8F5E8F6F8F78A383E078
:1018B000898FCE0149960E94170FA096E2E10C9401
:1018C0000011A8E1B0E0E7E6FCE00C94EC106983BD
:1018D0007A838B839C832D833E834F835887B9E023
:1018E000EB2EF12CEC0EFD1ECE010196B7010E94ED
:1018F000EC0F8E010F5E1F4FCE010596B8010E94BE
:10190000EC0F2985223008F47EC03989323010F47A
:10191000B8017CC08A859A8989278A87243011F08A
:10192000223031F4231709F06EC060E771E06EC019
:10193000343039F41D861E861F86188A1C861B8645
:1019400004C0323021F484E08987B7015FC02B8561
:101950003C858B899C89281B390B3C872B87ED8420
:10196000FE840F851889AD88BE88CF88D88CEA148C
:10197000FB040C051D0540F4EE0CFF1C001F111F9D
:10198000215030403C872B8720E030E040E050E0A1
:1019900080E090E0A0E0B0E460E070E0EA14FB04D6
:1019A0000C051D0540F0282B392B4A2B5B2BEA1820
:1019B000FB080C091D09B695A79597958795EE0C20
:1019C000FF1C001F111F6F5F7F4F6F31710531F7D3
:1019D000DA01C9018F779070A070B07080349105E2
:1019E000A105B10561F427FD0AC0E114F104010568
:1019F000110529F0205C3F4F4F4F5F4F20782D8716
:101A00003E874F87588BBE01675F7F4FCB010E9497
:101A1000170F6896EAE00C940811A8E1B0E0E3E142
:101A2000FDE00C94F01069837A838B839C832D8373
:101A30003E834F83588789E0E82EF12CEC0EFD1E83
:101A4000CE010196B7010E94EC0F8E010F5E1F4F71
:101A5000CE010596B8010E94EC0F8985823040F0D6
:101A60008989823028F0C701B8010E94641001C042
:101A70008FEF6896E6E00C940C11A8E1B0E0E3E487
:101A8000FDE00C94F01069837A838B839C832D8313
:101A90003E834F83588789E0E82EF12CEC0EFD1E23
:101AA000CE010196B7010E94EC0F8E010F5E1F4F11
:101AB000CE010596B8010E94EC0F8985823040F076
:101AC0008989823028F0C701B8010E94641001C0E2
:101AD0008FEF6896E6E00C940C11A8E1B0E0E3E724
:101AE000FDE00C94F01069837A838B839C832D83B3
:101AF0003E834F83588789E0E82EF12CEC0EFD1EC3
:101B0000CE010196B7010E94EC0F8E010F5E1F4FB0
:101B1000CE010596B8010E94EC0F8985823040F015
:101B20008989823028F0C701B8010E94641001C081
:101B300081E06896E6E00C940C11A8E0B0E0E3EADE
:101B4000FDE00C94ED109B01AC0183E08983DA0188
:101B5000C9018827B7FD83959927AA27BB27B82EE7
:101B6000211531054105510519F482E089833AC0F8
:101B70008823A9F0203080E0380780E0480780E81B
:101B8000580729F460E070E080E09FEC30C0EE245C
:101B9000FF248701E21AF30A040B150B02C0790136
:101BA0008A018EE1C82ED12CDC82CB82ED82FE82AE
:101BB0000F831887C801B7010E94C80E0197181635
:101BC000190684F4082E04C0EE0CFF1C001F111F20
:101BD0000A94D2F7ED82FE820F831887C81AD90AB9
:101BE000DC82CB82BA82CE0101960E94170F289622
:101BF000E9E00C940911ACE0B0E0E1E0FEE00C9407
:101C0000F41069837A838B839C83CE010196BE0195
:101C10006B5F7F4F0E94EC0F8D81823061F18230CB
:101C200050F1843021F48E81882351F12EC02F8110
:101C3000388537FD20C06E812F3131051CF06623B9
:101C4000F9F023C08EE190E0821B930B29853A8541
:101C50004B855C8504C056954795379527958A95A1
:101C6000D2F76623B1F050954095309521953F4FBE
:101C70004F4F5F4F0EC020E030E040E050E009C021
:101C80002FEF3FEF4FEF5FE704C020E030E040E090
:101C900050E8B901CA012C96E2E00C941011A8E0BA
:101CA000B0E0E5E5FEE00C94EC107B018C016115E1
:101CB00071058105910519F482E0898360C083E094
:101CC00089838EE1C82ED12CDC82CB82ED82FE820C
:101CD0000F831887C801B7010E94C80EFC01319715
:101CE000F7FF3BC0222733272E1B3F0B570168010C
:101CF000022E04C0D694C794B794A7940A94D2F73E
:101D000040E050E060E070E081E090E0A0E0B0E012
:101D100004C0880F991FAA1FBB1F2A95D2F70197ED
:101D2000A109B1098E219F21A023B1230097A1050C
:101D3000B10521F041E050E060E070E04A295B2904
:101D40006C297D294D835E836F8378878EE190E0D7
:101D50008E1B9F0B9C838B8312C0309781F00E2EBD
:101D600004C0EE0CFF1C001F111F0A94D2F7ED8275
:101D7000FE820F831887CE1ADF0ADC82CB821A829A
:101D8000CE0101960E94170F2896EAE00C940811E4
:101D9000EF92FF920F931F937B018C0180E0E81676
:101DA00080E0F80681E0080780E0180788F48FEFEC
:101DB000E816F1040105110531F028F088E090E003
:101DC000A0E0B0E017C080E090E0A0E0B0E012C07A
:101DD00080E0E81680E0F80680E0080781E0180758
:101DE00028F088E190E0A0E0B0E004C080E190E05D
:101DF000A0E0B0E020E230E040E050E0281B390BEA
:101E00004A0B5B0B04C016950795F794E7948A95E7
:101E1000D2F7F701E858FE4F8081281B31094109AC
:101E20005109C9011F910F91FF90EF900895DF9222
:101E3000EF92FF920F931F93FC01E480F5800681DF
:101E40001781D1808081823048F480E090E0A0E169
:101E5000B0E0E82AF92A0A2B1B2BA5C0843009F42C
:101E60009FC0823021F4EE24FF24870105C0E114D5
:101E7000F1040105110519F4E0E0F0E096C062817B
:101E800073819FEF623879070CF05BC022E83FEF67
:101E9000261B370B2A3131052CF020E030E040E0E2
:101EA00050E02AC0B801A701022E04C076956795BC
:101EB000579547950A94D2F781E090E0A0E0B0E012
:101EC00004C0880F991FAA1FBB1F2A95D2F701973C
:101ED000A109B1098E219F21A023B1230097A1055B
:101EE000B10521F081E090E0A0E0B0E09A01AB0103
:101EF000282B392B4A2B5B2BDA01C9018F77907085
:101F0000A070B07080349105A105B10539F427FFA8
:101F100009C0205C3F4F4F4F5F4F04C0215C3F4FD3
:101F20004F4F5F4FE0E0F0E02030A0E03A07A0E044
:101F30004A07A0E45A0710F0E1E0F0E079018A01D5
:101F400027C06038710564F5FB01E158FF4FD801E7
:101F5000C7018F779070A070B07080349105A10593
:101F6000B10539F4E7FE0DC080E490E0A0E0B0E0F8
:101F700004C08FE390E0A0E0B0E0E80EF91E0A1F75
:101F80001B1F17FF05C016950795F794E794319628
:101F900087E016950795F794E7948A95D1F705C0E1
:101FA000EE24FF248701EFEFF0E06E2F67956627A0
:101FB0006795902F9F77D794DD24D7948E2F8695A1
:101FC000492F462B582F5D29B701CA011F910F9148
:101FD000FF90EF90DF900895FC01DB01408151817B
:101FE0002281622F6F7770E0221F2227221F9381A8
:101FF000892F880F822B282F30E0991F9927991F4E
:1020000011969C93119721153105A9F5411551059C
:102010006105710511F482E037C082E89FEF1396E5
:102020009C938E9312979A01AB0167E0220F331FA6
:10203000441F551F6A95D1F783E08C930DC0220F82
:10204000331F441F551F12968D919C911397019732
:1020500013969C938E931297203080E0380780E08F
:10206000480780E4580758F314962D933D934D93F9
:102070005C93179708952F3F310579F44115510569
:102080006105710519F484E08C93089564FF03C021
:1020900081E08C9312C01C9210C02F5730401396D1
:1020A0003C932E93129783E08C9387E0440F551F47
:1020B000661F771F8A95D1F7706414964D935D93D0
:1020C0006D937C93179708951F93DC01FB019C91FE
:1020D000923008F447C08081823008F443C09430C5
:1020E00051F411961C91843099F58181682F70E02C
:1020F000611B71093FC0843021F0923031F482308D
:10210000B9F18181882389F12DC011961C91119715
:102110008230F1F081811817D9F412962D913C91FB
:102120001397828193818217930794F028173907B8
:10213000BCF014968D919D910D90BC91A02D2481A1
:10214000358146815781281739074A075B0718F4FC
:10215000112341F00AC082179307A407B50740F482
:10216000112319F061E070E005C06FEF7FEF02C04E
:1021700060E070E0CB011F91089597FB092E0726C0
:102180000AD077FD04D00CD006D000201AF4709548
:1021900061957F4F0895F6F7909581959F4F08952B
:1021A000AA1BBB1B51E107C0AA1FBB1FA617B7077D
:1021B00010F0A61BB70B881F991F5A95A9F7809599
:1021C0009095BC01CD0108952F923F924F925F925E
:1021D0006F927F928F929F92AF92BF92CF92DF9237
:1021E000EF92FF920F931F93CF93DF93CDB7DEB79C
:1021F000CA1BDB0B0FB6F894DEBF0FBECDBF099430
:102200002A88398848885F846E847D848C849B8486
:10221000AA84B984C884DF80EE80FD800C811B8194
:10222000AA81B981CE0FD11D0FB6F894DEBF0FBEC3
:10223000CDBFED0108950F931F93DF93CF93CDB7DB
:10224000DEB72E970FB6F894DEBF0FBECDBF0D8957
:102250001E8986E08C831A8309838FEF9FE79E8314
:102260008D839E01275E3F4FCE0101966F89788D49
:10227000A9010E944C112F813885020F131FF8010C
:1022800010822E960FB6F894DEBF0FBECDBFCF9151
:10229000DF911F910F9108952F923F924F925F927D
:1022A0006F927F928F929F92AF92BF92CF92DF9266
:1022B000EF92FF920F931F93DF93CF93CDB7DEB7CB
:1022C0002B970FB6F894DEBF0FBECDBF3C012B019C
:1022D0005A01FC0117821682838181FD03C06FEFD2
:1022E0007FEFC6C19AE0892E1E010894211C311C83
:1022F000F3012381F20123FD859123FF81912F01B9
:10230000882309F4B2C1853239F423FD859123FF76
:1023100081912F01853229F490E0B3010E94681366
:10232000E7CF982FFF24EE249924FFE1FF15D0F08A
:102330009B3269F09C3228F4903259F0933291F438
:102340000EC09D3249F0903369F441E024C052E060
:10235000F52A84E0F82A28C098E0F92A25C0E0E1AF
:10236000FE2A22C0F7FC29C0892F80538A3070F4DE
:10237000F6FE05C0989C902C1124980E15C0E89C80
:10238000E02C1124E80EF0E2FF2A0EC09E3229F460
:10239000F6FC6BC140E4F42A07C09C3619F450E8FF
:1023A000F52A02C0983649F4F20123FD959123FFE6
:1023B00091912F01992309F0B8CF892F855483304B
:1023C00018F08052833038F444E050E0A40EB51E7B
:1023D0005FE359830FC0933631F0933779F093352B
:1023E00009F056C020C0F5018081898342E050E0A9
:1023F000A40EB51E610101E010E012C0F501C0801D
:10240000D180F6FC03C06FEF7FEF02C0692D70E052
:1024100042E050E0A40EB51EC6010E945D138C017F
:102420005FE7F52214C0F501C080D180F6FC03C03F
:102430006FEF7FEF02C0692D70E042E050E0A40E24
:10244000B51EC6010E9452138C0150E8F52AF3FE16
:1024500007C01AC080E290E0B3010E946813EA94BA
:102460008E2D90E008171907A8F30EC0F601F7FCAF
:102470008591F7FE81916F0190E0B3010E9468138E
:10248000E110EA94015010400115110579F7EAC0F6
:10249000943611F0993669F5F7FE08C0F5012081F0
:1024A00031814281538184E090E00AC0F50180814E
:1024B00091819C01442737FD4095542F82E090E0A4
:1024C000A80EB91E9FE6F92257FF09C05095409506
:1024D000309521953F4F4F4F5F4FE0E8FE2ACA01EC
:1024E000B901A1012AE030E00E949413D82ED2183D
:1024F00040C0953729F41F2D1F7E2AE030E01DC013
:102500001F2D197F9F3661F0903720F4983509F020
:10251000ACC00FC0903739F0983709F0A6C004C09E
:1025200028E030E00AC0106114FD146020E130E0C2
:1025300004C014FD166020E132E017FF08C0F50169
:10254000608171818281938144E050E008C0F5018F
:1025500080819181BC0180E090E042E050E0A40ED7
:10256000B51EA1010E949413D82ED2188FE7F82E21
:10257000F122F6FE0BC05EEFF522D91438F4F4FE1A
:1025800007C0F2FC05C08FEEF82202C01D2D01C06D
:10259000192DF4FE0DC0FE01ED0DF11D808180337B
:1025A00019F499EEF92208C01F5FF2FE05C003C0BE
:1025B0008F2D867809F01F5F0F2DF3FC14C0F0FEFD
:1025C0000FC01E1510F09D2C0BC09D2C9E0C911A57
:1025D0001E2D06C080E290E0B3010E9468131F5FC9
:1025E0001E15C0F304C01E1510F4E11A01C0EE243C
:1025F00004FF0FC080E390E0B3010E94681302FF64
:102600001DC001FD03C088E790E00EC088E590E0A2
:102610000BC0802F867891F001FF02C08BE201C0D1
:1026200080E2F7FC8DE290E0B3010E94681306C0DF
:1026300080E390E0B3010E9468139A94D914C0F328
:10264000DA94F101ED0DF11D808190E0B3010E945B
:102650006813DD20A9F706C080E290E0B3010E9474
:102660006813EA94EE20C1F743CEF30166817781C7
:10267000CB012B960FB6F894DEBF0FBECDBFCF9126
:10268000DF911F910F91FF90EF90DF90CF90BF905F
:10269000AF909F908F907F906F905F904F903F9002
:1026A0002F900895FC010590615070400110D8F7FB
:1026B000809590958E0F9F1F0895FC01615070408A
:1026C00001900110D8F7809590958E0F9F1F089567
:1026D0000F931F93CF93DF938C01EB018B8181FFCD
:1026E0001BC082FF0DC02E813F818C819D812817E8
:1026F000390764F4E881F9810193F983E88306C01E
:10270000E885F985802F0995892B31F48E819F8189
:1027100001969F838E8302C00FEF1FEFC801DF91E8
:10272000CF911F910F910895FA01AA27283051F1F6
:10273000203181F1E8946F936E7F6E5F7F4F8F4FF2
:102740009F4FAF4FB1E03ED0B4E03CD0670F781F51
:10275000891F9A1FA11D680F791F8A1F911DA11D36
:102760006A0F711D811D911DA11D20D009F468946F
:102770003F912AE0269F11243019305D3193DEF617
:10278000CF010895462F4770405D4193B3E00FD0CD
:10279000C9F7F6CF462F4F70405D4A3318F0495DB8
:1027A00031FD4052419302D0A9F7EACFB4E0A6959B
:1027B0009795879577956795BA95C9F700976105BD
:1027C000710508959B01AC010A2E06945795479513
:1027D00037952795BA95C9F7620F731F841F951F08
:0827E000A01D0895F894FFCF3D
:1027E80025640053696D706C6520535441434B4513
:1027F8005200507265737320555020746F205374C3
:102808006172740050726573732043454E5445528B
:1028180020746F20706C61636520626C6F636B005D
:10282800426C6F636B2053697A65003C0020003E60
:10283800004C6576656C3A0031002F00594F5520E1
:1028480057494E2100594F55204C4F534521001EE2
:10285800000000000000000000010202030303035F
:102868000404040404040404050505050505050518
:1028780005050505050505050606060606060606F8
:1028880006060606060606060606060606060606E0
:1028980006060606060606060707070707070707C8
:1028A80007070707070707070707070707070707B0
:1028B80007070707070707070707070707070707A0
:1028C8000707070707070707070707070707070790
:1028D8000707070707070707080808080808080878
:1028E8000808080808080808080808080808080860
:1028F8000808080808080808080808080808080850
:10290800080808080808080808080808080808083F
:10291800080808080808080808080808080808082F
:10292800080808080808080808080808080808081F
:10293800080808080808080808080808080808080F
:1029480008080808080808080808080808080808FF
:08295800080808080808080837
:00000001FF
